:1000000064002500030A750076006400070AFE0CF0
:100010000600060416023D0015023C001C023000DA
:100020001D023100000CF106FF0C32003300FE0906
:10003000060526071F0A2A0C3500000C360016029A
:100040003D0015023C001C0230001D023100000C76
:10005000F106FF0C32003300FE09060426060A0AE8
:100060003F0C3500000C36000A0A1302800F3C00DA
:10007000000C800F9C004307470A000C92004307C6
:10008000470A000C91004307470A010C9000030740
:100090000008F90C34000000F4024B0A4F0A00007B
:1000A000FF0CF001FF0C0307F101FF0C0307F20145
:0800B000FF0C0307F301350A00
:0201FC00350AC2
:021FFE00EBFFF7
:00000001FF
